:100000000C945D000C9485000C9485000C94950470
:100010000C9495040C9495040C9485000C94850024
:100020000C9485000C9485000C9485000C9485003C
:100030000C9485000C9485000C9485000C9485002C
:100040000C94F3030C9485000C9463040C943D040D
:100050000C9485000C9485000C9485000C9485000C
:100060000C949F040C9485000000000024002700DD
:100070002A0000000000250028002B0004040404CE
:100080000404040402020202020203030303030342
:10009000010204081020408001020408102001021F
:1000A00004081020000000080002010000030407FB
:1000B0000000000000000000CD0511241FBECFEF9E
:1000C000D8E0DEBFCDBF11E0A0E0B1E0E6EEFEE09B
:1000D00002C005900D92A034B107D9F724E0A0E446
:1000E000B1E001C01D92A83BB207E1F710E0CDE5F9
:1000F000D0E004C02197FE010E946607CC35D107ED
:10010000C9F70E9418060C9471070C9400008091A6
:10011000970390E020919803821B9109089590E045
:10012000FC01EC55FF4F3491FC01E057FF4F249147
:10013000FC01E458FF4FE491EE2309F43BC0332364
:1001400039F1333091F038F43130A9F0323001F523
:1001500084B58F7D12C0373091F03830A1F0343043
:10016000B9F4809180008F7D03C0809180008F77EB
:10017000809380000DC084B58F7784BD09C08091C5
:10018000B0008F7703C08091B0008F7D8093B00066
:10019000F0E0EE0FFF1FEE58FF4FA591B4918FB71F
:1001A000F894EC91611103C020952E2301C02E2BF1
:1001B0002C938FBF0895CF92DF92EF92FF920F930F
:1001C0001F93CF93DF936C017A018B01C0E0D0E0E5
:1001D000CE15DF0589F0D8016D918D01D601ED9125
:1001E000FC910190F081E02DC6010995892B11F455
:1001F0007E0102C02196ECCFC701DF91CF911F9104
:100200000F91FF90EF90DF90CF900895FC01538DF8
:10021000448D252F30E0842F90E0821B930B5417E0
:1002200010F0CF96089501970895FC01918D828D6D
:10023000981761F0828DDF01A80FB11D5D968C913A
:10024000928D9F5F9F73928F90E008958FEF9FEF45
:100250000895FC01918D828D981731F0828DE80F01
:10026000F11D858D90E008958FEF9FEF0895FC01BB
:10027000918D228D892F90E0805C9F4F821B910988
:100280008F739927089584E094E00E94370121E05C
:10029000892B09F420E0822F0895FC01848DDF0171
:1002A000A80FB11DA35ABF4F2C91848D90E00196E9
:1002B0008F739927848FA689B7892C93A089B189D8
:1002C0008C9180648C93938D848D981306C00288E2
:1002D000F389E02D80818F7D80830895EF92FF92D6
:1002E0000F931F93CF93DF93EC0181E0888F9B8D59
:1002F0008C8D981305C0E889F989808185FD24C01B
:10030000F62E0B8D10E00F5F1F4F0F731127E02E9D
:100310008C8DE8120CC00FB607FCFACFE889F9897A
:10032000808185FFF5CFCE010E944D01F1CF8B8DED
:10033000FE01E80FF11DE35AFF4FF0820B8FEA89AF
:10034000FB898081806207C0EE89FF896083E8892C
:10035000F98980818064808381E090E0DF91CF9192
:100360001F910F91FF90EF900895CF93DF93EC01D1
:10037000888D8823C9F0EA89FB89808185FD05C0C5
:10038000A889B9898C9186FD0FC00FB607FCF5CFFF
:10039000808185FFF2CFA889B9898C9185FFEDCF47
:1003A000CE010E944D01E7CFDF91CF910895CF9309
:1003B000DF93C0E0D2E084E094E00E943701892B13
:1003C000D9F084E094E00E941501282F8A3099F337
:1003D00080918A0390918B03AC014F5F5F4F5093E4
:1003E0008B0340938A03BE010E941C07FC01E65761
:1003F000FE4F20532083DFCF84E094E0DF91CF9144
:100400000C94B5010E94430181110C94D701089509
:100410000895E091980380919703E81730F4F0E095
:10042000E756FC4F808190E008958FEF9FEF08958D
:100430009091980380919703981750F4E92FF0E07A
:10044000E756FC4F208130E09F5F9093980302C0F5
:100450002FEF3FEFC9010895089580E090E00895DF
:1004600085ED8093BC008091BC0084FDFCCF109290
:10047000DF03089540916301262F30E0240F311DE2
:1004800021323105DCF42091DF032430C9F4FC0172
:1004900080E090E0861758F4309163012191DC01EF
:1004A000AF5BBE4FA30FB11D2C930196F3CF80918C
:1004B0006301680F6093630180E0089581E008950F
:1004C00082E00895CF92DF92EF92FF920F931F93F5
:1004D000CF93DF937C01262F972F8A01809103040D
:1004E000882391F0C62FD72F6E01C40ED51ECC15D0
:1004F000DD0571F06991D701ED91FC910190F081DA
:10050000E02DC7010995F3CF642F822F0E943A0294
:10051000C801DF91CF911F910F91FF90EF90DF9075
:10052000CF900895CF93DF931F92CDB7DEB7698345
:10053000209103042223D1F020910004203240F0C6
:1005400021E030E0FC013383228380E090E015C09D
:1005500080910104E82FF0E0E052FC4F99819083F4
:100560008F5F809301048093000405C061E0CE0199
:1005700001960E943A0281E090E00F90DF91CF91C6
:10058000089561E080914001811160E06093400135
:100590008DE00C948F00009769F0FC010190002021
:1005A000E9F73197AF01481B590BBC0184E094E097
:1005B0000C94DB0080E090E008958F929F92AF92C0
:1005C000BF920F931F93CF93DF93CDB7DEB7A19761
:1005D0000FB6F894DEBF0FBECDBF19A2423008F4AB
:1005E0004AE08E010F5D1F4F842E912CA12CB12C5F
:1005F000A50194010E943007E62FB901CA010150FC
:100600001109EA3014F4E05D01C0E95CD801EC9313
:10061000232B242B252B61F7C8010E94CB02A19626
:100620000FB6F894DEBF0FBECDBFDF91CF911F9103
:100630000F91BF90AF909F908F90089581E080932D
:10064000030484E1809302041092010410920004D8
:1006500060E08CEA94E00E94920280910004813272
:1006600008F045C09091DF039111FCCF92E0909388
:10067000DF0391E09093DE039FEF9093DD031092F0
:10068000DC038093DB03A0EEB3E02BEB33E0F90156
:100690009E2F921B981718F49D919193F9CF109269
:1006A000BA038091BA0388628093BA038091B90338
:1006B000813061F41092B9038091BA038093BB003A
:1006C0008091BC0083FDF8CF85EC01C085EE80935E
:1006D000BC008091DF038230E1F38091DD038F3F26
:1006E00031F08091DD03803211F08091DD031092B2
:1006F000010410920004109203040E94C102809130
:10070000DF038111FCCF81E08093DF038093DE0360
:100710009FEF9093DD031092DC038093DB038093C3
:10072000BA038091BA0388628093BA038091B903B7
:10073000813061F41092B9038091BA038093BB00B9
:100740008091BC0083FDF8CF85EC01C085EE8093DD
:10075000BC008091DF038130E1F38091DC038230C3
:1007600018F48091DC0301C082E0ABEBB3E029E92F
:1007700033E0F9019E2F921B981718F49D919193E5
:10078000F9CF1092980380939703909197038091EB
:100790009803981781F08CEA94E00E941802BC013B
:1007A000990F880B990B40E10E94DD0288E291E0ED
:1007B0000E94CB02EACF0C94C1028BE291E00E942E
:1007C000CB0288E291E00E94CB020C941E0381E3ED
:1007D00091E00E94CB0288E291E00E94CB020C944F
:1007E0001E030E946C071F920F920FB60F921124E6
:1007F0002F933F938F939F93AF93BF9380919303D6
:1008000090919403A0919503B09196033091920337
:1008100023E0230F2D3720F40196A11DB11D05C043
:1008200026E8230F0296A11DB11D20939203809309
:10083000930390939403A0939503B09396038091B0
:100840008E0390918F03A0919003B0919103019634
:10085000A11DB11D80938E0390938F03A0939003ED
:10086000B0939103BF91AF919F918F913F912F9141
:100870000F900FBE0F901F9018951F920F920FB6FA
:100880000F9211242F933F934F935F936F937F9316
:100890008F939F93AF93BF93EF93FF9384E094E084
:1008A0000E944D01FF91EF91BF91AF919F918F9168
:1008B0007F916F915F914F913F912F910F900FBE5C
:1008C0000F901F9018951F920F920FB60F92112440
:1008D0002F938F939F93EF93FF93E0911404F091E4
:1008E00015048081E0911A04F0911B0482FD12C06E
:1008F000908180911D048F5F8F7320911E04821759
:1009000051F0E0911D04F0E0EC5FFB4F958F809378
:100910001D0401C08081FF91EF919F918F912F91D4
:100920000F900FBE0F901F9018951F920F920FB649
:100930000F9211240F900FBE0F901F9018951F92C9
:100940000F920FB60F9211242F933F934F935F9303
:100950006F937F938F939F93AF93BF93EF93FF9387
:100960008091B900887F803609F49CC068F5883290
:1009700009F45BC090F4803109F454C038F4882342
:1009800009F4F6C0883009F44DC0F6C0883109F486
:100990004CC0803209F45DC0EFC0803409F468C0F7
:1009A00048F4803309F455C0883309F0E5C08093DA
:1009B000DD03D8C0803509F44FC0883509F45DC027
:1009C000883409F0D9C0D6C0883909F4C7C0A8F462
:1009D000883709F467C038F4883609F463C0803773
:1009E00009F460C0C9C0883809F4B8C0803909F476
:1009F0005FC0803809F0C0C05BC0803B09F486C08E
:100A000038F4803A09F466C0883A09F47FC0B4C06B
:100A1000803C09F4A7C0883C09F4A4C0883B09F4D1
:100A20008AC0AAC08091BA0310C09091DC03809163
:100A3000DB03981770F5E091DC0381E08E0F809363
:100A4000DC03F0E0E554FC4F80818093BB0085EC33
:100A500086C08093DD038EC0E091DC0381E08E0FC1
:100A60008093DC038091BB00F0E0E554FC4F808371
:100A70009091DC038091DB036EC0E091DC0381E0A8
:100A80008E0F8093DC038091BB00F0E0E554FC4FB7
:100A900080838091DE0381116DC081E08093B90372
:100AA00084EA61C083E08093DF0310928701CFCF97
:100AB00080918701803208F051C0E091870181E088
:100AC0008E0F809387018091BB00F0E0E959FE4FC3
:100AD0008083BDCF85EC8093BC001092DF038091B2
:100AE0008701803230F4E0918701F0E0E959FE4F50
:100AF00010826091870170E0E0916501F0916601DC
:100B000087E691E009951092870136C084E08093D2
:100B1000DF031092640110926301E0916101F09192
:100B20006201099580916301811105C081E0809384
:100B3000630110924101E091640181E08E0F809386
:100B40006401F0E0EF5BFE4F80818093BB009091E9
:100B5000640180916301981708F479CF85E8809348
:100B6000BC000AC085EC8093BC001092DF0304C077
:100B70001092DD030E943002FF91EF91BF91AF917F
:100B80009F918F917F916F915F914F913F912F91A5
:100B90000F900FBE0F901F901895E4E0F4E01382C1
:100BA000128288EE93E0A0E0B0E084839583A68370
:100BB000B78328E031E03183208325EC30E03587AE
:100BC000248724EC30E03787268720EC30E0318B17
:100BD000208B21EC30E0338B228B22EC30E0358B04
:100BE000248B26EC30E0378B268B118E128E138EE1
:100BF000148EE1EAF4E021E0208323813481328302
:100C000021831482138227813085368325831086C1
:100C1000178212861186ECEAF4E013821282848332
:100C20009583A683B7838AE191E0918380830895B9
:100C3000789484B5826084BD84B5816084BD85B5B7
:100C4000826085BD85B5816085BD80916E008160C3
:100C500080936E0010928100809181008260809369
:100C6000810080918100816080938100809180006B
:100C70008160809380008091B10084608093B10096
:100C80008091B00081608093B00080917A00846090
:100C900080937A0080917A00826080937A008091BC
:100CA0007A00816080937A0080917A0080688093D6
:100CB0007A001092C100E0911404F091150482E0D2
:100CC0008083E0911004F09111041082E0911204ED
:100CD000F091130480E1808310921C04E0911804C9
:100CE000F091190486E08083E0911604F0911704D6
:100CF000808180618083E0911604F09117048081E7
:100D000088608083E0911604F091170480818068E8
:100D10008083E0911604F091170480818F7D808399
:100D2000EDE9F0E02491E9E8F0E08491882399F07E
:100D300090E0880F991FFC01E859FF4FA591B491ED
:100D4000FC01EE58FF4F859194918FB7F894EC9188
:100D5000E22BEC938FBF109298031092970310929E
:100D60000104109200041092DF0381E08093DE03FF
:100D70001092B90361E082E10E948F0061E083E19B
:100D80000E948F008091B9008E7F8093B90080917E
:100D9000B9008D7F8093B90088E48093B80085E422
:100DA0008093BC0000E012E0C0918C03D0918D03D1
:100DB00080918A0390918B03C817D907D4F580914D
:100DC0008A0390918B03C817D907A4F4CE01B80108
:100DD0000E941C07FC01E657FE4F608170E080E036
:100DE00090E04AE00E94DD0288E291E00E94CB029E
:100DF0002196E5CF80918C0390918D039C012F5F0C
:100E00003F4F30938D0320938C03B8010E941C0741
:100E1000FC01E657FE4F808190E08A3091054CF44A
:100E2000880F991FFC01E050FF4F0190F081E02DE9
:100E300009950E940202B8CF97FB072E16F4009482
:100E400007D077FD09D00E94520707FC05D03EF479
:100E5000909581959F4F0895709561957F4F089566
:100E6000A1E21A2EAA1BBB1BFD010DC0AA1FBB1FAE
:100E7000EE1FFF1FA217B307E407F50720F0A21B20
:100E8000B30BE40BF50B661F771F881F991F1A948D
:100E900069F760957095809590959B01AC01BD01B7
:100EA000CF010895AA1BBB1B51E107C0AA1FBB1F9E
:100EB000A617B70710F0A61BB70B881F991F5A95E6
:100EC000A9F780959095BC01CD010895EE0FFF1F05
:100ED0000590F491E02D099481E090E0F8940C9451
:060EE0007107F894FFCF3A
:100EE600E703DD03000000006E01DB000601B5012B
:100EF60037011501290100000000920262022D024D
:100F060008028700180209020D0A0066756E633230
:100F16000077726974654672657175656E637900EE
:00000001FF
