:100000000C945D000C9485000C9485000C94F8050C
:100010000C94F8050C94F8050C9485000C9485005C
:100020000C9485000C9485000C9485000C9485003C
:100030000C9485000C9485000C9485000C9485002C
:100040000C94DD080C9485000C94C6050C94A00556
:100050000C9485000C9485000C9485000C9485000C
:100060000C9402060C9485000000000800020100B8
:100070000003040700000000000000000000000072
:10008000250028002B0000000000240027002A0083
:10009000040404040404040402020202020203032E
:1000A0000303030301020408102040800102040836
:1000B0001020010204081020A60B11241FBECFEF50
:1000C000D8E0DEBFCDBF12E0A0E0B1E0E8E9FCE19E
:1000D00002C005900D92AC3EB107D9F724E0ACEE1A
:1000E000B2E001C01D92AB38B207E1F710E0CDE5F8
:1000F000D0E004C02197FE010E943F0ECC35D1070D
:10010000C9F70E9427090C944A0E0C940000E09154
:10011000A703F091A803309729F010929E03109244
:100120009D0309940895CF93DF93AC01E091A5035B
:10013000F091A6033097F1F09091A00380919F0376
:100140009817C0F090E0292F30E02617370754F4B5
:10015000D901A858BC4FEA01C20FD31F88818C93E4
:100160009F5FF1CF1092A00360939F03CB01DF91BB
:10017000CF910994DF91CF910895FC01538D448D67
:10018000252F30E0842F90E0821B930B541710F042
:10019000CF96089501970895FC01918D828D98174F
:1001A00061F0828DDF01A80FB11D5D968C91928D5B
:1001B0009F5F9F73928F90E008958FEF9FEF089558
:1001C000FC01918D828D981731F0828DE80FF11D21
:1001D000858D90E008958FEF9FEF0895FC01918D3C
:1001E000228D892F90E0805C9F4F821B91098F7335
:1001F0009927089586EB93E00E94EE0021E0892B79
:1002000009F420E0822F0895FC01848DDF01A80FFE
:10021000B11DA35ABF4F2C91848D90E001968F732E
:100220009927848FA689B7892C93A089B1898C914D
:1002300080648C93938D848D981306C00288F38913
:10024000E02D80818F7D80830895EF92FF920F9340
:100250001F93CF93DF93EC0181E0888F9B8D8C8D72
:10026000981305C0E889F989808185FD24C0F62EA0
:100270000B8D10E00F5F1F4F0F731127E02E8C8D39
:10028000E8120CC00FB607FCFACFE889F989808123
:1002900085FFF5CFCE010E940401F1CF8B8DFE01C9
:1002A000E80FF11DE35AFF4FF0820B8FEA89FB89BB
:1002B0008081806207C0EE89FF896083E889F989BF
:1002C00080818064808381E090E0DF91CF911F91F5
:1002D0000F91FF90EF900895CF93DF93EC01888DFD
:1002E0008823C9F0EA89FB89808185FD05C0A8893A
:1002F000B9898C9186FD0FC00FB607FCF5CF8081C0
:1003000085FFF2CFA889B9898C9185FFEDCFCE0109
:100310000E940401E7CFDF91CF91089580E090E043
:10032000892B29F00E94FA0081110C940000089595
:100330000895E091A00380919F03E81730F4F0E066
:10034000E858FC4F808190E008958FEF9FEF08956B
:100350009091A00380919F03981750F4E92FF0E04B
:10036000E858FC4F208130E09F5F9093A00302C0CB
:100370002FEF3FEFC901089580919F0390E02091F6
:10038000A003821B91090895089580E090E00895EC
:1003900085ED8093BC008091BC0084FDFCCF109261
:1003A0009C03089540913103262F30E0240F311D26
:1003B00021323105DCF420919C032430C9F4FC0186
:1003C00080E090E0861758F4309131032191DC01F0
:1003D000AF5EBC4FA30FB11D2C930196F3CF80915C
:1003E0003103680F6093310380E0089581E0089540
:1003F00082E00895CF93DF9300D0CDB7DEB7CB0175
:10040000642F49835A830E94D2014981842F5A81E3
:10041000952F0F900F90DF91CF910895CF93DF9399
:100420001F92CDB7DEB7698361E0CE0101960E94CD
:10043000D20181E090E00F90DF91CF9108950F936A
:100440001F9340910F0350911003092F112722276A
:100450003327FA01E251FD4F00838C012227332715
:10046000FA01E151FD4F0083072F182F292F332761
:10047000FA01E051FD4F00839A012C5F3F4F30930A
:10048000100320930F03FA01EF50FD4F60831F917B
:100490000F91089520910F0330911003F901E2515B
:1004A000FD4F9083A9014E5F5F4F5093100340931F
:1004B0000F03F901E151FD4F8083089520910F034F
:1004C00030911003A9014F5F5F4F50931003409389
:1004D0000F03F901E251FD4F808308952091EC0252
:1004E0003091ED02F901E251FD4F808190E0982FAB
:1004F0008827A9014E5F5F4F5093ED024093EC02B5
:10050000F901E151FD4F2081822B0895CF93DF93B4
:10051000CBE8D1E0CE010197F1F761E08AE00E94DB
:1005200035082197F1F7DF91CF910895CF93DF93AD
:10053000CBE8D1E0CE010197F1F760E08AE00E94BC
:1005400035082197F1F7DF91CF910895CF93DF938D
:1005500060E08DE00E943508CBEAD4E0CE0101973F
:10056000F1F760E08BE00E943508CE010197F1F7CA
:1005700061E08DE00E943508CE010197F1F760E05F
:100580008DE00E9435082197F1F7DF91CF91089512
:10059000CF93DF9360E08DE00E943508CBEAD4E092
:1005A000CE010197F1F761E08BE00E943508CE01A2
:1005B0000197F1F761E08DE00E943508CE010197C7
:1005C000F1F760E08DE00E9435082197F1F7DF91A7
:1005D000CF9108958F929F92BF92CF92DF92EF9228
:1005E000FF920F931F93CF93DF93B82E7B0110924E
:1005F000100310920F031092ED021092EC0261159D
:10060000710529F481ED91E00E94AE0761C000916F
:100610009F038091A003081769F110E04B018FEF51
:10062000881A980A8091A003C0910F03D0911003FB
:100630000817A9F06E018FEFC81AD80AD0921003DC
:10064000C0920F0383E594E00E94A801C251DD4FE0
:1006500088838C149D0434F78881180FE3CFFE0142
:10066000E351FD4F808118130AC02297CE15DF0594
:1006700031F425C089EF91E00E94AE071EC08BE0E7
:1006800092E00E94AE076AE070E0812F0E94140899
:10069000A0910F03B0911003A351BD4F8C916AE05C
:1006A00070E00E94140880910F039091100302974C
:1006B0000E94BC07C7010E94BC0780E00AC0F70186
:1006C000E251FD4F9081B91619F082EE91E0D4CF3E
:1006D00081E0DF91CF911F910F91FF90EF90DF901C
:1006E000CF90BF909F908F9008950F931F9310927B
:1006F000100310920F0380910E03853109F45EC040
:1007000040F48330A1F08530B9F081116DC084E1EF
:100710005CC0873109F45CC008F455C0883109F425
:100720005CC0893109F060C0809108014EC08091A1
:1007300000019091010155C08091B1030E945E02B9
:100740002FB7F8948091B2039091B303A091B403B2
:10075000B091B5032FBF0091AD031091AE0320916E
:10076000AF033091B003BC01CD01601B710B820B54
:10077000930B0E941F0280916704909168040E946D
:100780004A028091690490916A040E944A02809111
:10079000A9039091AA030E944A028091AB03909111
:1007A000AC030E944A0260917304709174048091BA
:1007B0007504909176040E941F0220C0809104016C
:1007C000909105010EC080915F040E945E0216C0E8
:1007D000809102019091030104C0809106019091E3
:1007E00007010E944A020AC08CE192E00E945B0766
:1007F00080910E0360E170E00E94140810920E03D5
:1008000040910F035091100314161506F4F460E0A4
:1008100020E030E0F901E251FD4F808190E0860F49
:10082000911D682F2F5F3F4F2417350799F70E94BE
:100830005E0240910F03509110036EEE72E083E56B
:1008400094E01F910F910C94FA011F910F9108955C
:100850000E94450E0F931F93CF93EDE5F1E040E02A
:1008600050E09A01619171914F5F5F4F8617970732
:10087000C1F7220F331FF901E35FFE4F00811181A1
:100880000E9486020E94A6080E9496020E94A6026A
:100890000E94A6020E94A6020E94C8020E94A6020E
:1008A000C4E10E94A602C150E1F70E9486020E94A4
:1008B000A6080E9496020E9486020E9496020E944A
:1008C000C8020E94A6020E94A6020E94A6020E94DE
:1008D000C802C0E100FF03C00E94C80202C00E941B
:1008E000A60216950795C150A9F70E94A6020E947C
:1008F000A6020E94A6020E94A6020E9486020E94F0
:10090000A60860E08AE00E94350860E08DE00E9461
:10091000350860E08BE0CF911F910F910C94350862
:10092000CF93009729F48FE292E0CF910C94AE0719
:1009300020919F0330E04091A003241B31098217CE
:10094000930721F08EE492E00E94AE0783E594E0E5
:100950000E94A80180930E0380910E03813508F454
:10096000D2C0C0910E03C63699F128F4C13561F0AA
:10097000C536F9F0B9C0C83609F479C008F468C0C2
:10098000C93609F482C0B0C062E070E081E50E941F
:10099000EA02882309F4A8C00E946E029093010124
:1009A0008093000180910001909101010E942A042E
:1009B00099C062E070E085E60E94EA02882309F4AB
:1009C00093C00E946E0290930501809304018AC037
:1009D00061E070E086E60E94EA02882309F484C0A0
:1009E0008091EC029091ED029C012F5F3F4F30937C
:1009F000ED022093EC02FC01E251FD4F908181E079
:100A0000911101C080E080935F0480916704909110
:100A100068042091020130910301821B930B909393
:100A20006A04809369041092AA031092A903109299
:100A3000AC031092AB0310926C0410926B041092F2
:100A40006F041092700410927104109272044AC0E4
:100A500062E070E087E60E94EA02882309F444C05D
:100A60000E946E0290930301809302013BC062E0FA
:100A700070E088E60E94EA028823B1F10E946E02CB
:100A800090930701809306012DC061E070E089E634
:100A90000E94EA02882341F18091EC029091ED02DC
:100AA0009C012F5F3F4F3093ED022093EC02FC013D
:100AB000E251FD4F8081809308016091080170E050
:100AC00080E090E00E94240D20E030E04AE754E40A
:100AD0000E947A0C6093090170930A0180930B01C4
:100AE00090930C0181E001C080E010920E0381110F
:100AF00025C082E892E00E945B0760E170E08C2FE5
:100B0000CF910C94140890919F038091A0039817A3
:100B1000A9F085E992E00E945B0780910E0360E1F5
:100B200070E00E94140890919F038091A003981791
:100B300029F083E594E00E94A801F5CFCF910895B4
:100B40001F920F920FB60F9211242F933F934F9342
:100B50005F936F937F938F939F93AF93BF93EF9325
:100B6000FF9386EB93E00E940401FF91EF91BF9108
:100B7000AF919F918F917F916F915F914F913F9135
:100B80002F910F900FBE0F901F9018951F920F92EC
:100B90000FB60F9211242F938F939F93EF93FF9390
:100BA000E091C603F091C7038081E091CC03F091FE
:100BB000CD0382FD12C090818091CF038F5F8F7330
:100BC0002091D003821751F0E091CF03F0E0EA5476
:100BD000FC4F958F8093CF0301C08081FF91EF91EF
:100BE0009F918F912F910F900FBE0F901F9018958E
:100BF0001F920F920FB60F9211240F900FBE0F90FD
:100C00001F9018951F920F920FB60F9211242F93D9
:100C10003F934F935F936F937F938F939F93AF9384
:100C2000BF93EF93FF938091B900887F803609F4DA
:100C30009CC068F5883209F45BC090F4803109F4F7
:100C400054C038F4882309F4F6C0883009F44DC044
:100C5000F6C0883109F44CC0803209F45DC0EFC0A1
:100C6000803409F468C048F4803309F455C08833EF
:100C700009F0E5C080935403D8C0803509F44FC013
:100C8000883509F45DC0883409F0D9C0D6C08839E8
:100C900009F4C7C0A8F4883709F467C038F4883667
:100CA00009F463C0803709F460C0C9C0883809F40A
:100CB000B8C0803909F45FC0803809F0C0C05BC09B
:100CC000803B09F486C038F4803A09F466C0883A5B
:100CD00009F47FC0B4C0803C09F4A7C0883C09F483
:100CE000A4C0883B09F48AC0AAC08091770310C0D1
:100CF0009091760380917503981770F5E0917603D3
:100D000081E08E0F80937603F0E0EB5AFC4F8081F8
:100D10008093BB0085EC86C0809354038EC0E09125
:100D2000760381E08E0F809376038091BB00F0E024
:100D3000EB5AFC4F808390917603809175036EC0CF
:100D4000E091760381E08E0F809376038091BB0063
:100D5000F0E0EB5AFC4F808380919B0381116DC0C2
:100D600081E080939A0384EA61C083E080939C03CE
:100D700010925303CFCF80915303803208F051C0BB
:100D8000E091530381E08E0F809353038091BB0069
:100D9000F0E0ED5CFC4F8083BDCF85EC8093BC0020
:100DA00010929C0380915303803230F4E0915303FE
:100DB000F0E0ED5CFC4F10826091530370E0E09135
:100DC000A103F091A20383E393E0099510925303EA
:100DD00036C084E080939C0310923203109231035A
:100DE000E091A303F091A40309958091310381114F
:100DF00005C081E08093310310921103E09132032A
:100E000081E08E0F80933203F0E0EF5EFC4F808133
:100E10008093BB009091320380913103981708F4BE
:100E200079CF85E88093BC000AC085EC8093BC0034
:100E300010929C0304C0109254030E94C801FF91B9
:100E4000EF91BF91AF919F918F917F916F915F9142
:100E50004F913F912F910F900FBE0F901F901895BB
:100E6000CF92DF92EF92FF920F931F93CF93DF9376
:100E70006C017A018B01C0E0D0E0CE15DF0589F06E
:100E8000D8016D918D01D601ED91FC910190F08119
:100E9000E02DC6010995892B11F47E0102C021962F
:100EA000ECCFC701DF91CF911F910F91FF90EF9091
:100EB000DF90CF900895009769F0FC010190002029
:100EC000E9F73197AF01481B590BBC0186EB93E062
:100ED0000C94300780E090E008958F929F92AF923B
:100EE000BF920F931F93CF93DF93CDB7DEB7A19738
:100EF0000FB6F894DEBF0FBECDBF19A2423008F482
:100F00004AE08E010F5D1F4F842E912CA12CB12C35
:100F1000A50194010E941D0EE62FB901CA010150DE
:100F20001109EA3014F4E05D01C0E95CD801EC93EA
:100F3000232B242B252B61F7C8010E945B07A19668
:100F40000FB6F894DEBF0FBECDBFDF91CF911F91DA
:100F50000F91BF90AF909F908F900895CF93DF93A4
:100F60000E945B07EC0189EE92E00E945B078C0F08
:100F70009D1FDF91CF910895CF92DF92EF92FF9264
:100F8000CF93DF936C01990FEE08FF08F7FE1AC0AC
:100F9000E091B603F091B7030190F081E02D6DE28E
:100FA00086EB93E00995EC0166277727CB016C1956
:100FB0007D098E099F094AE00E946D077C01EC0EB5
:100FC000FD1E06C04AE0C701B6010E946D077C0104
:100FD00089EE92E00E945B078E0D9F1DDF91CF91FD
:100FE000FF90EF90DF90CF90089590E0FC01EC55DA
:100FF000FF4F2491FC01E057FF4F8491882399F023
:1010000090E0880F991FFC01EA57FF4FA591B4911A
:10101000FC01E458FF4F859194918FB7F894EC91BF
:10102000E22BEC938FBF0895CF93DF93AB01672B37
:1010300061F4E091B603F091B7030190F081E02DE7
:10104000682F86EB93E0099506C0682F70E080E07A
:1010500090E00E946D07EC0189EE92E00E945B0730
:101060008C0F9D1FDF91CF91089590E0FC01E8590E
:10107000FF4F3491FC01EC55FF4F2491FC01E057E8
:10108000FF4FE491EE2309F43BC0332339F13330B1
:1010900091F038F43130A9F0323001F584B58F7D0C
:1010A00012C0373091F03830A1F03430B9F480916B
:1010B00080008F7D03C0809180008F7780938000B7
:1010C0000DC084B58F7784BD09C08091B0008F7743
:1010D00003C08091B0008F7D8093B000F0E0EE0FF0
:1010E000FF1FE458FF4FA591B4918FB7F894EC918E
:1010F000611103C020952E2301C02E2B2C938FBF8E
:1011000008953FB7F89480917C0490917D04A0915C
:101110007E04B0917F0426B5A89B05C02F3F19F02F
:101120000196A11DB11D3FBFBA2FA92F982F882767
:10113000820F911DA11DB11DBC01CD0142E0660FC2
:10114000771F881F991F4A95D1F708958F929F9214
:10115000AF92BF92CF92DF92EF92FF920E948108EE
:101160006B017C0192E0892E912CA12CB12C0E9464
:101170008108DC01CB018C199D09AE09BF09883EAD
:101180009340A105B10598F328EEC20E23E0D21ECC
:10119000E11CF11C8A9489288A288B2829F0812C4B
:1011A000912C54018394E3CFFF90EF90DF90CF9088
:1011B000BF90AF909F908F9008951F920F920FB69F
:1011C0000F9211242F933F938F939F93AF93BF93CD
:1011D0008091B2039091B303A091B403B091B50391
:1011E00030917B0423E0230F2D3720F40196A11DBD
:1011F000B11D05C026E8230F0296A11DB11D209345
:101200007B048093B2039093B303A093B403B09391
:10121000B50380917C0490917D04A0917E04B091EF
:101220007F040196A11DB11D80937C0490937D04E1
:10123000A0937E04B0937F04BF91AF919F918F9153
:101240003F912F910F900FBE0F901F90189578949B
:1012500084B5826084BD84B5816084BD85B58260BB
:1012600085BD85B5816085BD80916E00816080936C
:101270006E001092810080918100826080938100D5
:1012800080918100816080938100809180008160E5
:10129000809380008091B10084608093B100809140
:1012A000B00081608093B00080917A008460809368
:1012B0007A0080917A00826080937A0080917A002F
:1012C000816080937A0080917A00806880937A00B0
:1012D0001092C100E091C603F091C70382E08083C1
:1012E000E091C203F091C3031082E091C403F09136
:1012F000C50380E180831092CE03E091CA03F09190
:10130000CB0386E08083E091C803F091C90380811C
:1013100080618083E091C803F091C9038081886077
:101320008083E091C803F091C90380818068808345
:10133000E091C803F091C90380818F7D80838AE0AA
:101340000E94F5078BE00E94F5078DE00E94F507EB
:1013500061E08AE00E94350880EC92E00E945B0721
:1013600084E190E00E94BC0788E28093BA0087E89D
:1013700090E09093A4038093A30383E990E090937B
:10138000A2038093A1031092A00310929F031092D6
:101390009E0310929D0310929C0381E080939B0317
:1013A00010929A0361E082E10E94350861E083E1D6
:1013B0000E9435088091B9008E7F8093B90080919A
:1013C000B9008D7F8093B90088E48093B80085E4EC
:1013D0008093BC0080E994E09093A6038093A503DA
:1013E00085E793E09093A8038093A70380917A0008
:1013F000846080937A0080917A008D7F80937A0058
:1014000080917A008E7F80937A006091080170E06D
:1014100080E090E00E94240D20E030E04AE754E4B0
:101420000E947A0C6093090170930A0180930B016A
:1014300090930C01109268041092670410926A0451
:10144000109269041092AA031092A9031092AC039F
:101450001092AB031092B1031092AD031092AE0341
:101460001092AF031092B00380910001909101019E
:101470000E942A04C0E4D1E0C0907704D0907804A0
:10148000E0907904F0907A040E94810860937704D8
:10149000709378048093790490937A048091770410
:1014A00090917804A0917904B0917A048C199D09E7
:1014B000AE09BF098093730490937404A0937504DC
:1014C000B0937604C0937C0080917A00806480930E
:1014D0007A0080917A0086FDFCCF8091780020917F
:1014E000790090E0922B9093620480936104409085
:1014F000090150900A0160900B0170900C016091FD
:101500006104709162048090090190900A01A0909A
:101510000B01B0900C01C0906304D0906404E09083
:101520006504F090660480E090E00E94220D9B012B
:10153000AC01C301B2010E94B00D2B013C01A50119
:10154000940160E070E080E89FE30E940D0CA70129
:1015500096010E94B00D9B01AC01C301B2010E9433
:101560000E0C6093630470936404809365049093FD
:1015700066046091630470916404809165049091A5
:1015800066040E94EC0C7093680460936704809179
:10159000690490916A04892B09F498C080916004D1
:1015A00081110CC020916704309168048091690416
:1015B00090916A048217930708F48BC0209161040C
:1015C0003091620480916B0490916C0482179307B0
:1015D000D8F4809161049091620490936C0480939C
:1015E0006B042FB7F8948091B2039091B303A0914C
:1015F000B403B091B5032FBF80936F049093700430
:10160000A0937104B093720480916004882309F45C
:101610005DC0809106019091070120915F04222313
:1016200041F12091690430916A048091670490919E
:1016300068044091020150910301841B950B8217AD
:10164000930728F48091690490916A040AC08091FC
:101650006704909168042091020130910301821B7C
:10166000930B90936A048093690480910401909194
:10167000050140916D0450916E04209167043091F2
:1016800068042417350728F420916D0430916E0406
:1016900004C0209167043091680430936E04209355
:1016A0006D042091690430916A048217930770F4E5
:1016B00040916704509168042091690430916A0454
:1016C000B901681B790B4617570750F00E948E012D
:1016D000D3CED093600488EC92E00E94AE076ECF28
:1016E00088ED92E00E94AE0780916B0490916C04AB
:1016F0009093AA038093A90380916D0490916E0446
:101700009093AC038093AB0380916F04909170042D
:10171000A0917104B09172048093AD039093AE03D5
:10172000A093AF03B093B0038091B1038F5F809318
:10173000B1031092600410925F0410926C04109236
:101740006B0410926E0410926D04C0CFE6EBF3E0D0
:101750001382128288EE93E0A0E0B0E08483958348
:10176000A683B78321EB31E03183208325EC30E081
:101770003587248724EC30E03787268720EC30E05B
:10178000318B208B21EC30E0338B228B22EC30E04C
:10179000358B248B26EC30E0378B268B118E128E06
:1017A000138E148EE0E8F4E021E02083238134815D
:1017B00032832183148213822781308536832583E7
:1017C0001086178212861186E3E5F4E013821282F6
:1017D00084839583A683B78383EC91E09183808390
:1017E000EFE5F4E0108211821382128214821582D6
:1017F000168217821186108615861486178616861D
:10180000108A118A128A138A148A158A168A178AEC
:10181000108E118E128E138E08955058BB27AA2752
:101820000E94250C0C94760D0E94680D38F00E94E1
:101830006F0D20F039F49F3F19F426F40C94650DD8
:101840000EF4E095E7FB0C945F0DE92F0E94870DE5
:1018500058F3BA17620773078407950720F079F4E5
:10186000A6F50C94A90D0EF4E0950B2EBA2FA02D21
:101870000B01B90190010C01CA01A0011124FF273D
:10188000591B99F0593F50F4503E68F11A16F04038
:10189000A22F232F342F4427585FF3CF4695379537
:1018A0002795A795F0405395C9F77EF41F16BA0BFC
:1018B000620B730B840BBAF09150A1F0FF0FBB1FAA
:1018C000661F771F881FC2F70EC0BA0F621F731FF3
:1018D000841F48F4879577956795B795F7959E3F50
:1018E00008F0B0CF9395880F08F09927EE0F9795E1
:1018F000879508950E948E0C0C94760D0E946F0DB2
:1019000058F00E94680D40F029F45F3F29F00C94D4
:101910005F0D51110C94AA0D0C94650D0E94870D5A
:1019200068F39923B1F3552391F3951B550BBB270E
:10193000AA2762177307840738F09F5F5F4F220F53
:10194000331F441FAA1FA9F335D00E2E3AF0E0E84A
:1019500032D091505040E695001CCAF72BD0FE2F94
:1019600029D0660F771F881FBB1F26173707480728
:10197000AB07B0E809F0BB0B802DBF01FF279358E0
:101980005F4F3AF09E3F510578F00C945F0D0C9438
:10199000AA0D5F3FE4F3983ED4F38695779567955B
:1019A000B795F7959F5FC9F7880F911D9695879515
:1019B00097F90895E1E0660F771F881FBB1F621734
:1019C00073078407BA0720F0621B730B840BBA0BF2
:1019D000EE1F88F7E09508950E94F30C6894B1110A
:1019E0000C94AA0D08950E948F0D88F09F5798F0CF
:1019F000B92F9927B751B0F0E1F0660F771F881F14
:101A0000991F1AF0BA95C9F714C0B13091F00E942D
:101A1000A90DB1E008950C94A90D672F782F8827A0
:101A2000B85F39F0B93FCCF3869577956795B39554
:101A3000D9F73EF490958095709561957F4F8F4FC3
:101A40009F4F0895E89409C097FB3EF490958095C8
:101A5000709561957F4F8F4F9F4F9923A9F0F92F74
:101A600096E9BB279395F695879577956795B795F2
:101A7000F111F8CFFAF4BB0F11F460FF1BC06F5FD8
:101A80007F4F8F4F9F4F16C0882311F096E911C0EA
:101A9000772321F09EE8872F762F05C0662371F00B
:101AA00096E8862F70E060E02AF09A95660F771F1F
:101AB000881FDAF7880F9695879597F9089597F913
:101AC0009F6780E870E060E008959FEF80EC0895E4
:101AD00000240A941616170618060906089500240D
:101AE0000A9412161306140605060895092E039487
:101AF000000C11F4882352F0BB0F40F4BF2B11F4FB
:101B000060FF04C06F5F7F4F8F4F9F4F089557FD59
:101B10009058440F551F59F05F3F71F04795880F5B
:101B200097FB991F61F09F3F79F0879508951216F2
:101B300013061406551FF2CF4695F1DF08C016169E
:101B400017061806991FF1CF86957105610508944F
:101B50000895E894BB2766277727CB0197F9089566
:101B60000E94C30D0C94760D0E94680D38F00E94FF
:101B70006F0D20F0952311F00C945F0D0C94650D02
:101B800011240C94AA0D0E94870D70F3959FC1F348
:101B9000950F50E0551F629FF001729FBB27F00D1B
:101BA000B11D639FAA27F00DB11DAA1F649F662770
:101BB000B00DA11D661F829F2227B00DA11D621FBF
:101BC000739FB00DA11D621F839FA00D611D221F79
:101BD000749F3327A00D611D231F849F600D211D5D
:101BE000822F762F6A2F11249F5750409AF0F1F0E0
:101BF00088234AF0EE0FFF1FBB1F661F771F881F49
:101C000091505040A9F79E3F510580F00C945F0D14
:101C10000C94AA0D5F3FE4F3983ED4F38695779534
:101C20006795B795F795E7959F5FC1F7FE2B880FEE
:101C3000911D9695879597F90895A1E21A2EAA1BF2
:101C4000BB1BFD010DC0AA1FBB1FEE1FFF1FA2176C
:101C5000B307E407F50720F0A21BB30BE40BF50B69
:101C6000661F771F881F991F1A9469F760957095F2
:101C7000809590959B01AC01BD01CF010895EE0FB9
:101C8000FF1F0590F491E02D099481E090E0F89415
:081C90000C944A0EF894FFCFFA
:101C9800A81608005F0028000A00000000052A9B1B
:101CA80029912987291D29132909299F2803290CE6
:101CB8002916291F29892992299C29052A95288BC3
:101CC80028812817280F2A192A832A8D2A062910DD
:101CD800291A2984298E299829022A0C2A1D288F35
:101CE8002802291429872999290C2A1E2AE916D598
:101CF80016C116AD169916851671165D16651678F5
:101D0800168B169E16B116C416D716EA164916353E
:101D18001621160D16FD161117251739176C168082
:101D2800169416A816BC16D016E416F8161A163FFE
:101D38001664168916AE16D316F8161D170000007D
:101D48000025013007BD006C01EE00CC00E000006A
:101D58000000000E02FA01C5019801BC01A8019912
:101D6800014E6F2045787065637465642053697A05
:101D78006500636F6D6D616E6420646F6573206EBE
:101D88006F74206D61746368004E6F7468696E6764
:101D980020417669616C61626C6500696E76616C80
:101DA800696420636865636B73756D0054582046D9
:101DB80061756C7420636F6D6D616E643A200045C7
:101DC80072726F723A206E6F206279746573206642
:101DD8006F72206120726563656976653F004572A0
:101DE800726F723A207278206279746520636F7519
:101DF8006E7420616E64207769726520617661690E
:101E08006C61626C6520646F6E277420616772650F
:101E180065005258204661756C7420636F6D6D6162
:101E28006E643A20004572726F723A205769726583
:101E38002E617661696C61626C652829206F6E205D
:101E480061207265616420726571756573742E0016
:101E580052656164793A200043726F7373696E67E3
:101E6800203D20547275650043726F7373696E6705
:0C1E7800203D2046616C7365000D0A00DF
:00000001FF
